:020000040800F2
:1000000020070020C5000008A12C0008FD250008DD
:1000100000000000000000000000000000000000E0
:10002000000000000000000000000000A52C0008F7
:100030000000000000000000A32C0008C12C0008F4
:10004000D700000800000000D7000008D700000813
:10005000D7000008D7000008D7000008D700000824
:1000600000000000250B0008350B0008D700000831
:10007000F5090008D7000008D700000800000000BC
:10008000D70000080000000000000000452D000817
:1000900000000000D7000008D7000008D7000008C3
:1000A00000000000D70000080000000041330008F5
:1000B0000348854600F08CFC0048004715390008CD
:1000C000200700200448804704480047FEE7FEE779
:1000D000FEE7FEE7FEE7FEE7432D0008B10000085B
:1000E00030B50B46014600202022012409E00D46D0
:1000F000D5409D4205D31D469540491B2546954058
:1001000040191546521E002DF1DC30BD70B500249B
:100110002546002801DA01244042002901DA0125A0
:100120004942FFF7DDFFAC4200D04042002C00D036
:10013000494270BDF0B51FB40646002082B00546A6
:100140004024019100901BE0019922460F46304661
:1001500000F020F8049A059B801A994110D31046AC
:100160001946224600F009FB361A8F4101972246B4
:1001700001200021009F00F000FB38184D41009045
:100180002046641E0028DFDC019B00982946324689
:1001900007B0F0BD10B5202A04DB0846203AD04055
:1001A000002110BD0B46D340D0402024A21A91401C
:1001B0000843194610BDD2B201E00270401C491E2E
:1001C000FBD270470022F6E710B513460A460446F4
:1001D0001946FFF7F0FF204610BDF8B502464A4029
:1001E000D40F42004B0052085B089A4202D20246EA
:1001F000084611464A0023D0C30D4A00DDB2120E54
:10020000AD1A202D35DA49020126490AF6058A1968
:10021000002C00D0524220214F1B1146B9402A41E8
:100220001018C20D9A4221D0002C17D0012D08DCE5
:10023000DA05801AD20F8019D207DBB200F0C8FAB3
:10024000F8BDDA05801A012340001B06C01880188B
:100250005A428018CA0F1043490007E04908C207F4
:100260001143DA05801A80194008801800F0A8FAB6
:10027000F8BD61000122511A001BF7E70122D207E5
:100280005140AAE70122D2075040A6E7024670B5C6
:100290004A40D30FDB0740002DD04A002AD0010E80
:1002A000140E000212020919400A520A8418E501CC
:1002B00004465443000A120A2E045043A41942195A
:1002C000200CC543AA18120C0125AD03521C52196B
:1002D00012047F39240400D0521C104301D4400082
:1002E000491EC2B20C06C0092018401C4008802AD2
:1002F00002D003E0002070BD40084000002900DA71
:100300000020184370BD70B502464A40D50F40002A
:100310004A00ED0740085208002814D0002A12D0E5
:10032000C40DD30D41020120C0055202490A520AF0
:10033000E41A091812187D34914201D3641C00E0BC
:100340004900002C01DA002070BD0023914201D346
:10035000891A0343400849000028F7D100290AD030
:10036000914202D10121C90705E0914201D2012148
:1003700001E00121C943E005C018401900F020FA4E
:1003800070BD0000F0B507460846584087B0C00F62
:10039000049048000E46590040084908BC1A88419C
:1003A00005D2384631461E4617460B4602465800CF
:1003B000400810434CD0300D039040055900400DCB
:1003C000490D0590401A0290402872DA1803012165
:1003D000000B09050843019004980092002805D0FD
:1003E00001995242002088410092019002984021D8
:1003F0000A1A0199009800F0C0F905460C466B46B0
:1004000007CB00F0CAF9C0197141039A0E0D002301
:10041000D71756401A467A40164344D0049A002A09
:100420002DD0029A012A039A15DC1205C01A9141B7
:1004300001263605001C7141D20F059ED20700939C
:10044000019202962A46234600F008FA07B0F0BD52
:1004500038463146FAE71605224A0F46B218C01A46
:10046000B74101210905001C4F4100187F41114689
:1004700018187941E20F10436D19644113E0E20747
:100480006D0815436408C2071443039A0126120538
:10049000C01A91413605001C7141CE074008304317
:1004A0004908C01851412A46234600F0CAF9CDE751
:1004B000FFE7049801224000C117121A00238B4164
:1004C00004983146C417381AA141EEE730B401242C
:1004D000E407634030BC55E730B40124E4076140D1
:1004E00030BC4FE70000E0FFF0B51FB488B00B99B7
:1004F0000998002448400999C00F4900490809910A
:10050000C0070B990090490049080B910999089878
:10051000A64608431CD00B990A98084318D009989E
:1005200001244000420D4800410D099824050003B4
:10053000000B204309900B980003000B20430B9005
:1005400050181C494018002201901446104605E03E
:10055000002001460DB0F0BD032801DA034600E09B
:1005600003239C46C11A0AAE0AE05F0008ADED5BAA
:100570004F00F75B7D430027AA187C41491C5B1E96
:100580006145F2DD410004AB5A522104120C0A43CA
:10059000240C401C0828DFDB01980290009970466B
:1005A00001910090059B049A0799069800F056F96E
:1005B000D0E700000DFCFFFFF0B50C465C4085B0B5
:1005C000E40FE40703944C000026640859009446A5
:1005D000490802460296224321D062460A431ED0B1
:1005E0006200570D4A000E032303550D01240246F5
:1005F0002C492405781B1B0B360B4018234326433C
:10060000614600901C46501AB44103D30098401C28
:10061000009002E0921800985B41002803DA002065
:10062000014605B0F0BD00200121090507468646B8
:1006300011E064461D46141BB54106D36546521BA6
:10064000B341744607430C43A646CD07400849080A
:10065000284392185B4105460D43EAD110461843E2
:1006600013D06046194650407140084306D060469A
:10067000101AB34106D20122002306E00022012312
:10068000DB0702E00122D2435310009874460105B3
:10069000381C6141029C039D0019694100F0D1F8AA
:1006A000BFE70000FD030000C217C10F504010B5A6
:1006B0004018CA079623002100F08AF810BD0000F8
:1006C0000EB5C217C10F5040CA0740180021054B94
:1006D0000293019200910A460B4600F0BFF803B066
:1006E00000BD000033040000C20F4100400201239E
:1006F000400ADB05D207090EC0187F2901DA002065
:100700007047962903DC9623591AC84001E09639B0
:100710008840002AF4D040427047C20FD207400000
:1007200040080BD0C10D0723DB01C91840020905A1
:10073000400A1143C2084007114370470020014698
:100740007047CB0FDB07490010B5490802460A4342
:1007500007D00A0D07240903E401090B121B002A24
:1007600001DC002010BDC900440F0C43C100E0189B
:10077000D205801800F024F810BD10B5202A04DB43
:100780000146203A9140002010BD914020239C1A40
:100790000346E3401943904010BD10B5202A06DB04
:1007A000CB170846203A1041C1170B4306E00B4611
:1007B0001341D0402024A21A91400843194610BD8D
:1007C000002904DA401C490001D14008400070476C
:1007D00070B40024050C05D11024000402D10029B6
:1007E00021D01124050E01D100020834050F01D1DA
:1007F0000001241D850F01D18000A41C002801DB0D
:100800004000641C002908D020252E1B0D46F54011
:10081000A14000D001212943084301061B1B000A07
:10082000DB1D02D5002070BC7047DB05181880184E
:100830000029F8DA401C4900F5D170BC400840009E
:10084000704710B5002B08DA0024401C6141921853
:100850005B411A4301D14008400010BDF0B51FB400
:1008600082B005460C0003D0084602F071FD02E09C
:1008700002F06EFD20300246009021462846FFF728
:100880007CFF049B059A04460F4618431143084316
:1008900014D0184610431BD0009840210A1A18465D
:1008A0000599FFF777FC05460E46009A05990498CE
:1008B000FFF763FF084305D0012004E020463946D6
:1008C00007B0F0BD0020C11705430E432C4337434A
:1008D00000990E986305401A7905E40A00220C433A
:1008E000FD0A0A3002D500200146E9E7010510198A
:1008F00069410C9C0D9D00196941FFF7A2FFDFE7DC
:1009000070B54B005B0803430BD04B005C0D002619
:1009100033466542B341D417AD1AA34102DB002030
:10092000014670BD12053018514170BDFEB500235F
:100930001A461B1A8A4103DB0020014603B0F0BDB2
:100940004A000D0301212D0B0905520D0D43D1075E
:1009500002D100186D41521E5110FF31FF3101319B
:10096000002704463E463846009701910246012181
:1009700000200905FFF70EFCC3197141F818324633
:1009800084468E464A4161462846611A904104D306
:100990006046241A954176461F46241900986D41F9
:1009A000401C00903428E1DDF91930467041091BE4
:1009B000A84103D20022D243134601E0002213468D
:1009C00001980105381C7141FFF73BFFB6E70000B5
:1009D000064C0125064E05E0E36807CC2B430C3C92
:1009E00098471034B442F7D3FFF766FB483C000841
:1009F000683C000810B5024800F06CF910BD00001A
:100A00004001002010B50146406A826B50231A4213
:100A10000AD1816B01225202114381630168CA68C5
:100A20001205920F05D020E0006B026B084690473C
:100A300010BD827E002A18D10A68120715D58A686F
:100A400053070122002B09DB4B680C24A3434B60A6
:100A5000816B130299431143816306E0816B20236C
:100A600019438163C16B1143C16300F01BF910BDD1
:100A700010B5406A816B402211438163C16B04222F
:100A80001143C16300F025F910BD10B5406A00F0B4
:100A90001FF910BDF8B50446002000902068816859
:100AA0008907890F012905D10168C90731D1C168BA
:100AB00009042ED48168184A102611400125002906
:100AC0001AD1816829438160154814490068FFF7ED
:100AD00007FB00E0401E00900028FBD100F0A0FCC6
:100AE000074611E000F09CFCC01B02280CD92068CE
:100AF0000068C043C00707D0A06B3043A063E06B21
:100B00002843E0630120F8BD20680068C043C007A7
:100B1000E8D10020F8BD00001700008040420F001F
:100B20007C00002010B5024800F0DCFA10BD000087
:100B30008001002010B5024800F0D4FA10BD00007A
:100B4000D802002010B50446006805494018142159
:100B5000FFF7C6FA800020640248E06310BD000081
:100B6000F8FFFDBF0000024030B5056C0124AC4029
:100B7000C56B6C60046863604368102B036803D026
:100B800099600068C26030BD9A600068C16030BD85
:100B900072B6FEE7F8B50025044620340095227DA4
:100BA000012A39D00122227503689E68760767D42E
:100BB000384F4E68BE424DD09E6A0F78BA401643F9
:100BC0009E620123C26A1B079A421FD0012A1DD0D0
:100BD000022A1BD0032A19D0042A17D0052A15D0BF
:100BE000062A13D0072A11D002688B685669760747
:100BF000760FB3420AD05369DB08DB00536100680B
:100C000042690B7A5B075B0F1A4342610A68102A3C
:100C100004D0112A02D038E00220F8BD1E488368B3
:100C2000102A07D001229205134383600868102818
:100C300003D02AE00122D205F6E7194817490068D7
:100C4000FFF74EFA0A21484300E0401E00900028BA
:100C5000FBD11AE0986A0E78B24090439862096816
:100C6000102901D0112910D10B488268102904D015
:100C7000012189058A43826007E00121C905F9E75E
:100C8000816B2022114381630125002020752846B5
:100C9000F8BD0000011000000027014040420F0095
:100CA0007C00002010B508490020084A88814300D4
:100CB000D35A8C89401C1B19C0B28B812028F6D3D3
:100CC0001804400D888110BD4000002094000020D1
:100CD0007047704770B5044600680168490702D53F
:100CE0004168490705D40168090730D541680907FB
:100CF0002DD5A16BC90604D4A16B01225202114368
:100D0000A163C1680C250905890F00291AD1A17EAC
:100D1000002917D10168090714D581684A07012104
:100D2000002A08DB4268AA434260A06B0A02904393
:100D30000843A06306E0A06B20221043A063E06B91
:100D40000843E0632046FFF7ADFF20680560206898
:100D5000016809060DD5406800060AD5A06B01217F
:100D600009040843A063204600F0D8F821688020D9
:100D7000086020680168C90613D54168C90610D506
:100D8000A16A1025012902D0C168C90707D0E16B0B
:100D900002221143E16305602046FFF79AFF2068B5
:100DA000056070BDF8B500260446002805D0A06B8C
:100DB00025462035002802D007E00120F8BD00209C
:100DC000E0632875204600F0ABF8A06B1022C00647
:100DD000002870DB2068816849076CD4A16B13017F
:100DE000994302231943A16381688907890F012967
:100DF00005D10168C9070FD1C16809040CD4C168C5
:100E000018239943A3681943C16020680169636886
:100E100089008908194301612068C1683D4B194068
:100E2000C160207E617E8003C9030843A17E4B031D
:100E30001843A36A012B02D001231B0300E0002307
:100E40001843E36818432369022B09D00023184391
:100E50002B79E57E5B0018430123012D02D00AE0C7
:100E60000423F4E7002927D0A16B20252943A1639F
:100E7000E16B1943E163E1690D46FF3DC23D02D0DC
:100E8000256A294308432168CD680543CD600125C3
:100E9000E16A2D07A94213D0012911D002290FD0F0
:100EA00003290DD004290BD0052909D0062907D024
:100EB000072905D010E028E0012109040843DAE7FA
:100EC00021684D69ED08ED004D6121684D69A78DE0
:100ED0007F077F0F3D434D612168C9680E4D294052
:100EE000814207D10020E063A06B80088000401C95
:100EF000A06308E0A06B022188431043A063E06B6D
:100F00001843E06301263046F8BDA06B1043A06390
:100F1000F8E700001902FEFFE7FF3F83704700007B
:100F200070B586B0054614216846FFF74BF91F4996
:100F30002868884238D11E498A69401502438A616F
:100F40008A69024005924A69000202434A6149697E
:100F50000026014005910220009003200190092005
:100F600069460296C00600F07DF91248124C41C451
:100F70008020266060604000A0608000E06020204B
:100F8000666120610C48083C00F0FAF8002801D0A6
:100F9000FFF7FEFD2C63002211460C20656200F075
:100FA0009FFA0C2000F090FA06B070BD00240140BA
:100FB000001002400800024080010020F7B50446FE
:100FC00000680025806840073DD426462036307DE5
:100FD00001280AD001273775607E012807D02046F6
:100FE000FFF758FD050002D02EE00220FEBDA06BE9
:100FF00016490840FF2101310843A0630020E06347
:101000003075216B12488862216B1248C862216BCF
:101010001148086321681C2008602068416810227C
:10102000114341602068C1683943C1602168206B69
:101030004031029B019A00F0CDF8206881680422BB
:101040001143816000E002252846FEBDFEF1FFFF4E
:10105000050A00088B0A0008710A000830B501462D
:1010600020314B780022022B04D0042383630A70C2
:10107000012030BD03681C680E25AC431C6003686A
:101080001C68640864001C600123056C1C46C06B6E
:10109000AC4044604B700A70002030BD70B5002435
:1010A000014620314A78022A03D0042181630124B9
:1010B00016E0026813680E25AB43136002681368DC
:1010C0005B085B0013600122056C1346AB40C56BE7
:1010D0006B604A7000220A70416B002900D088477B
:1010E000204670BDF0B4C16B0D6801680C68042225
:1010F000066C1346B3402B420DD063070BD50B682B
:101100009B0602D40B6893430B60016C8A40C16B51
:101110004A60C16A19E00227B74002462F40012306
:101120002032002F15D0A70713D50C68A40604D4CD
:101130000C680A25AC430C605370036C0221994083
:10114000C36B596000211170816A002916D0F0BC70
:1011500008470827B7402F4210D024070ED50C6847
:101160000E25AC430C60046C1946A140C46B616051
:101170008363537000211170016BE6E7F0BC704788
:1011800070B5040021D00221204620300546417070
:10119000226811680E48A3680140606826691843F8
:1011A000E3683343184363691843A3691843E36949
:1011B0001843084310602046FFF7C4FC0021A163D8
:1011C000012068702970084670BD012070BD0000C4
:1011D0000FC0FFFFF8B504468C462030017800258B
:1011E000012909D00126067041780027012905D080
:1011F000077002252846F8BD0220F8BD0221417083
:10120000A7632068016849084900016061462046DB
:10121000FFF7AAFCE06A00282068016802D00E22CD
:10122000114306E00A22114301602068016804228C
:10123000914301602068016831430160DAE70000F2
:1012400070B5044600F0ECF80546601C02D0044876
:101250000078241800F0E4F8401BA042FAD370BDD7
:1012600070000020F8B5002303240125BAE02E46C3
:101270009E40B44632407CD00E79B607B60F012EA0
:1012800001D0022E17D186682746B6465E00B740C9
:1012900000967646BE43B646CF68009EB740764677
:1012A0003743876046686746BE430F79FF06FF0FE6
:1012B0009F40374347600E79F643B6070ED0C668A5
:1012C0002746B4465E00B646B7406646BE43B446BF
:1012D0008F687646B74066463743C7600E79B607D3
:1012E000B60F022E14D1DE08B60036180096366A04
:1012F0005F07B446FE0E0F27B646B7406646BE43AC
:10130000B4460F697646B74066463743009E37625B
:1013100006682746B4465E00B646B7406646BE43FA
:101320000F79B446BF07BF0F7646B74066463743CE
:1013300007604E68B603B60F53D02D4FBE692E43DB
:10134000BE61BE699F08F607F60F2A4EBF00BE19A0
:101350000096B6680F27B4469E07360FB646B740CC
:101360006646BE430927FF06B446B84202D10027AD
:1013700010E036E0204FB84201D101270AE01F4FAC
:10138000B84201D1022705E01D4FB84201D1032721
:1013900000E005277646B74066463743009EB760B3
:1013A000184E36684F689643FF0300D51643154F15
:1013B0003E607E684F689643BF0300D51643114FC9
:1013C0007E60BE684F689643FF0200D516430D4FFE
:1013D000BE60FE684F689643BF0200D51643094AB7
:1013E000D6605B1C0A681646DE4000D03FE7F8BDB9
:1013F00000100240000001400004004800080048BE
:10140000000C0048000401400069084000D00120A1
:101410007047002A01D081617047816270470000E7
:101420000148806870470000700000200248816811
:1014300002788918816070477000002010B5064856
:101440000168102211430160002000F007F800F04D
:1014500027F8002010BD00000020024070B50446AF
:101460000D4D7D202978C000FEF73AFE01460B485D
:101470000068FEF735FE00F043FB002809D1042C7C
:1014800007D200222146401E00F02AF800206C609E
:1014900070BD012070BD0000700000207C000020A5
:1014A00008B50848816901221143816181691140B1
:1014B0000091C26901040A43C261C06908400090FA
:1014C00008BD000000100240002805DBC106C90E5F
:1014D00001208840014908607047000000E100E0F9
:1014E00010B501F07BFF10BDF8B505460068354C1E
:1014F000C00352D5E0690026C00007D4E16920048A
:101500000143E161E1690140012600912E48016833
:10151000C90510D40168821511430160FFF780FFEF
:10152000074604E0FFF77CFFC01B642824D8264848
:101530000068C005F6D5206A03273F02384020D056
:101540006968394081421CD0206A226AB84301216F
:1015500009040A432262226A8A4322622062C00787
:101560000FD0FFF75DFF009008E0FFF759FF0099EB
:10157000411A1648814201D90320F8BD206A80072C
:10158000F3D5206A6968B84308432062002E04D06E
:10159000E169012000078143E1612878C00705D097
:1015A000206BA968800880000843206328788006A3
:1015B00005D5206B10218843E9680843206300208B
:1015C000F8BD0000001002400070004088130000C9
:1015D000F8B50F46060059D03A4D2868C007C00F2D
:1015E000B84209D22868400840003843286028687B
:1015F000C007C00FB84249D13068334C81070CD5C1
:10160000400704D5606807210902084360606068EC
:10161000F0218843B168084360603078C00726D065
:10162000706801280ED0216802280ED08907002991
:101630002CDA61688908890001436160FFF7F0FED8
:1016400000900DE021688903F1E78901EFE7FFF7DA
:10165000E7FE0099411A1D48814201D90320F8BDD7
:1016600060680C210840716889008842EFD12868C1
:10167000C007C00FB8420BD9286840084000384363
:1016800028602868C007C00FB84201D00120F8BD0B
:101690003078400706D56068072109028843F16861
:1016A0000843606000F028F86168094A0906090FDC
:1016B000515CC840074908600020FFF7CFFE0020BA
:1016C000F8BD000000200240001002408813000016
:1016D000943B00087C0000200448054900684968E4
:1016E000044A4905490F515CC84070477C000020FE
:1016F00000100240A43B000810B514A30FCB88B023
:101700006C460FC415A30FCB0FC4184A51680C20A8
:101710000B4603401648042B16D0082B14D18B021D
:101720001B0F6C46E45CD26A04AB1207120F9A5C82
:10173000C90305D500231946FEF7FCFC214601E04C
:1017400020460C4901F01BFE08B010BD0203040541
:10175000060708090A0B0C0D0E0F101001020304F6
:1017600005060708090A0B0C0D0E0F1000100240A9
:1017700000127A0000093D00FEB5040070D0207808
:10178000DC4DC0074AD068680007800F012807D0E9
:1017900068680007800F022809D16868C00306D571
:1017A000286880033AD560680028E7D036E0616891
:1017B000012914D001208004002901D0052914D06A
:1017C0002A68012109048A432A6029688143296023
:1017D0006068002816D0FFF723FE06460EE0286852
:1017E0000121090408432860F2E7296801432960C0
:1017F000F5E7FFF715FE801B64286ED82868800384
:10180000F7D50BE0FFF70CFE064604E0FFF708FEF5
:10181000801B6428F1D828688003F7D4207801263B
:10182000800700283CDA68680007800F07D06868E6
:101830000007800F022809D16868C00306D4286811
:10184000800716D5E06801280AD112E0E068002878
:10185000286816D030432860FFF7E2FD074605E010
:1018600043E1FFF7DDFDC01B0228C6D828688007CA
:10187000F7D52868F82188432169C9000843286002
:101880000EE0400840002860FFF7CAFD074604E06C
:10189000FFF7C6FDC01B0228AFD828688007F7D421
:1018A0002078000722D5E0690028686A0ED030430E
:1018B0006862FFF7B5FD074604E0FFF7B1FDC01B06
:1018C00002289AD8686A8007F7D50FE040084000E0
:1018D0006862FFF7A5FD074605E09DE0FFF7A0FD64
:1018E000C01B022889D8686A8007F7D420780427AB
:1018F0004007002860DA00200190E869C00008D4A1
:10190000E969B8060143E961E969014001200091F4
:10191000019079480168C90511D401688215114305
:101920000160FFF77DFD009005E0FFF779FD00996C
:10193000401A642870D870480068C005F5D5A068C2
:1019400001280AD0002801D0052810D0286A4008B4
:1019500040002862286AB84301E0286A30432862C0
:10196000A068002812D0FFF75BFD00900AE0286A0B
:1019700038432862F1E7FFF753FD0099411A5F48A9
:10198000814249D8286A8007F5D50DE0FFF748FD68
:10199000009006E0FFF744FD0099411A5748814244
:1019A0003AD8286A8007F5D40198002804D0E9695C
:1019B000012000078143E9612078C00635D56069C0
:1019C00001280CD0401D686B23D038436863686BD6
:1019D000400840006863FFF723FD064622E0686B7D
:1019E00038436863686B30436863FFF719FD064648
:1019F00004E0FFF715FD801B02285BD8686B8007A9
:101A0000F7D5686BF8218843A169C900084368636A
:101A10000BE0B8436863F4E74CE0FFF701FD801B7F
:101A2000022847D8686B8007F7D4206A00285ED068
:101A300069680907890F022942D001263606022863
:101A4000286805D0B0432860FFF7EAFC044633E07D
:101A5000B0432860FFF7E4FC074604E0FFF7E0FC32
:101A6000C01B022826D828688001F7D4E86AE16AFA
:101A7000000900010843E862616AA06A08436968D6
:101A80003D2212049143084368602868304328606F
:101A9000FFF7C6FC044604E0FFF7C2FC001B022867
:101AA00008D828688001F7D521E0FFF7B9FC001BB2
:101AB000022801D90320FEBD28688001F5D416E074
:101AC0000128F8D06868E96A01221204636A0240BA
:101AD0009A420AD10907E26A090F914205D10F2102
:101AE00089040840A16A884201D00120FEBD00207F
:101AF000FEBD00000010024000700040881300008E
:101B0000094910B5401E884201D9012010BD074C7B
:101B100060610321081F01F061FC0020A061072023
:101B20002061002010BD0000FFFFFF0000E000E08A
:101B300070477047F0B502462032137F012B1BD04F
:101B4000012616770223537705686B68AC68702707
:101B5000BB430F681F436F600068084B984202D078
:101B6000074B984204D1802349689C4321438160FC
:101B7000567700201077F0BD0220F0BD002C014008
:101B80000004004070B5040005D025462035687F6C
:101B9000002802D006E0012070BD002028772046F2
:101BA00000F014F802206877211D206801F0D2F8B7
:101BB00001204034A071A877E87720706070A07091
:101BC000E070207160716877002070BD08B5006812
:101BD000094988420FD10948C26981150A43C26187
:101BE000C06900220840009011461320FFF778FCDE
:101BF0001320FFF769FC08BD0020004000100240E0
:101C0000014620314A7F012A01D00120704702227B
:101C10004A770268D36801210B43D3600068084A01
:101C2000904202D0074A904204D182685207520F74
:101C3000062A02D002680A430260002070470000B2
:101C4000002C014000040040704770B50446006855
:101C500001690025C9438907002915DBC168C9430B
:101C6000890711D4E91E016101202077206880696D
:101C70008007204602D0FFF7E7FF04E000F0BEF83F
:101C8000204600F05BF9257720680169C9434907C0
:101C900017D4C168C943490713D40421C94301615A
:101CA00002202077206880698005800F204602D0BE
:101CB000FFF7CAFF04E000F0A1F8204600F03EF96B
:101CC000257720680169C943090716D4C168C9434B
:101CD000090712D40821C943016104202077206834
:101CE000C0698007204602D0FFF7AEFF04E000F095
:101CF00085F8204600F022F9257720680169C9435C
:101D0000C90617D4C168C943C90613D41021C943F1
:101D10000161082020772068C0698005800F204677
:101D200002D0FFF791FF04E000F068F8204600F0D1
:101D300005F9257720680169C943C90708D1C16839
:101D4000C943C90704D1891E0161204600F046F944
:101D500020680169C943090609D4C168C943090655
:101D600005D48021C94301612046FFF7E1FE2068C8
:101D70000169C943490609D4C168C943490605D464
:101D80004021C9430161204600F0FCF92068016947
:101D9000C943890609D4C168C943890605D42021ED
:101DA000C94301612046FFF7C4FE70BD10B586B07F
:101DB000044614216846FEF705FA0E492068884259
:101DC00015D10D48426949130A43426140690840F0
:101DD0000590C02000900220019000200290039006
:101DE0000120049009206946C006FFF73BFA06B0BF
:101DF00010BD000000040040001002407047F8B51C
:101E0000064604462036307F00270D4601280ED0B6
:101E100001203077002A0CD0042A1BD0082A2FD0AA
:101E20000C2A3ED00127002030773846F8BD02202A
:101E3000F8BD206800F0D8FF2068816908221143AE
:101E400081612068826904218A43826120688169F6
:101E50002A6912E0206801F003F8206882690121F4
:101E6000C9020A438261206881690122920291437A
:101E70008161206881692A69120211438161D2E778
:101E8000206801F027F82068C16908221143C16168
:101E90002068C26904218A43C2612068C1692A6935
:101EA00012E0206801F052F82068C1690122D202D4
:101EB0001143C1612068C269012189028A43C2615C
:101EC0002068C1692A6912021143C161ABE770B58C
:101ED000040005D025462035687F002802D006E0A2
:101EE000012070BD00202877204600F015F8022060
:101EF0006877211D206800F02DFF01204034A0717B
:101F0000A877E87720706070A070E0702071607131
:101F10006877002070BD000008B500680549884258
:101F200007D10548C26902210A43C261C06908405D
:101F3000009008BD000400400010024070470000FF
:101F400010B504460222203000290AD004290DD001
:101F50002046403008290ED04378012B10D00120B4
:101F600010BD837F012BFAD182770AE0C37F012B5A
:101F7000F5D1C27705E00378012BF0D1027000E0C3
:101F800042700122206800F021FF10492068884239
:101F900005D00F4A904202D00E4A904204D1426CC2
:101FA0000123DB031A43426420680122884202D0E5
:101FB0000949884204D181684907490F062902D09E
:101FC000016811430160002010BD0000002C014099
:101FD000004401400048014000040040FEB5594C57
:101FE00005216069FEF792F8002950D1564800F0AB
:101FF00027FC55480188E1804188218181886181E1
:10200000C1882180018961804089A08001F084FA23
:102010000420205EFEF748FB4C4F3946FEF736F9A8
:1020200060620A200621205E615E404349434018F9
:10203000FEF746FB01F08AFD054608200E46205EAD
:10204000FEF73EFB2A463346FEF7B6FA01F0AEFA3B
:10205000FEF777FBFEF761FB3D4A3E4BFEF744FA85
:10206000FEF76FFB23462C3320621A1F616A01F0D2
:10207000ABFB0020205EFEF717FB3946FEF706F9A2
:102080003549FEF703F92169FEF7A7F82061606979
:102090000A2853D1002060613049206AFEF7F6F823
:1020A0000546A08901218902401AFEF7FDFA29465A
:1020B000FEF793F805460146E069FEF78EF80646FE
:1020C000E06127482749854201DD054602E08D424F
:1020D00000D90D462846A169FEF7D0F8FEF71DFB92
:1020E000214A224BFEF700FA02900F463046FEF7D7
:1020F00014FB1F4A1F4BFEF7F7F9064600911E49D5
:102100002846FEF7C3F8FEF708FB3246009BFEF7B1
:1021100039F93B46029AFEF735F9FEF712FB1749EB
:10212000174A884201DD084602E0904200D9104675
:10213000FEF7DAFA00B201F0FBFCA5616069401C11
:102140006061FEBD40000020D400002011C2793D36
:10215000CB67791EDCA54C400AD7A33B0000A04109
:1021600000004843000048C39A9999999999B93F4A
:102170007B14AE47E17A843F000040410060154582
:10218000006015C57047704770470000F8B50268D9
:102190000446D069116896689C4B05461D40202373
:1021A000002D75D0F7079A4DFF0FBC460D402F4309
:1021B0006DD02546C7078035002F06D0CF0504D542
:1021C000012717622A683A432A60820708D5F20776
:1021D00006D0276802223A622A6804273A432A6016
:1021E000420708D5F20706D02668042232622A6820
:1021F000022632432A6002070AD50A461A4066467A
:10220000324305D02668082232622E6816432E60BB
:10221000020508D54A0106D501222668D20232629B
:102220002A681A432A602A68002A39D0800606D50F
:10223000880604D5616E002901D0204688472868A9
:1022400021688968490602D4282108422DD02046F9
:1022500000F04EFF21688868400622D5EFF3108019
:10226000012282F310888B68402293438B6080F3B5
:102270001088206F002814D066494163206FFEF754
:102280000DFF00280CD0206F416B08E000E012E049
:10229000850610D58D060ED5616E9DE020468847D7
:1022A000F8BD2046FFF770FFF8BD2046FFF76CFF32
:1022B00000202860F8BD256E012D7DD1C5067BD597
:1022C000CD0679D51026166222689068254640060C
:1022D0004035002845DA216F086840680004000C8A
:1022E000E8D02F8B8742E5D968838869202833D0CE
:1022F000EFF31080012181F3108811683701B94391
:10230000116080F31088EFF31080012181F31088B1
:1023100021688A68520852008A6080F31088EFF3BF
:102320001080012181F3108821688A684027BA4310
:102330008A6080F31088E36700202066EFF3108046
:10234000012181F3108821680A68B2430A6080F392
:102350001088206FFEF782FE288B698B401A81B2AD
:1023600031E0288B698B401A81B2688B0028A1D09C
:1023700000299FD0EFF31080012585F310881568A0
:10238000FF272137BD43156080F31088EFF31080DD
:10239000012282F31088226895686D086D009560AF
:1023A00080F31088E367002020666066EFF31080FA
:1023B000012282F3108800E009E022681368B34329
:1023C000136080F310882046FFF7DDFEF8BD050698
:1023D00006D50D0604D5A16E002900D05EE7F8BD34
:1023E0004006FCD54806FAD52046EFF310810124BB
:1023F00084F3108814684025AC43146081F310887E
:1024000083670021816600F0F8F8F8BD0F0800002E
:1024100020010004DD30000810B5040003D0A06FD7
:10242000002802D007E0012010BD002174200155D2
:10243000204600F027F82420A0672068016849089A
:1024400049000160204600F083FE0128ECD0606A5C
:10245000002802D0204600F0A9FD20684168012232
:10246000D2029143416020688168082291438160D3
:1024700020680168012211430160204600F0FCFD44
:1024800010BD000070B586B0064614216846FDF701
:1024900099FE2149306888423BD120498A69012050
:1024A000800302438A618A69024005924A69C0003A
:1024B00002434A6149690025014003200591400219
:1024C0000090022001900320039001200490092035
:1024D00002956946C006FEF7C5FE1148114C21C49D
:1024E0002560A560E56025618020656160600D481C
:1024F000083CFEF745FE002801D0FEF749FB346793
:10250000002211461B206662FEF7EAFF1B20FEF741
:10251000DBFF06B070BD0000003801400010024033
:1025200030000240D8020020FFB50446806F83B01F
:1025300017460D4620285ED1002D0AD0002F08D066
:10254000A168C001814207D12069002804D1E807B1
:1025500002D0012007B0F0BD204660300090007D21
:10256000012848D0009801210175002080210851E0
:102570002120A067FEF754FF26464036019037829F
:1025800077820120A1680003814202D120690028DE
:1025900005D02F46002500990020087511E000277E
:1025A000F9E700228021204600F060FE002815D1C6
:1025B000002F15D02168387808857F1C708A401E4E
:1025C0007082708A019B002806980090E9D1002251
:1025D0004021204600F04AFE002808D00320B9E739
:1025E00028882168C005C00D0885AD1CE6E72020BD
:1025F000A0670020AEE70220ACE77047FEE710B509
:102600000924E406002220212046FEF702FF00F004
:1026100016F8012210212046FEF7FBFE00F00FF80D
:10262000002210212046FEF7F4FE00F008F80122F7
:1026300020212046FEF7EDFE00F001F810BD01203C
:102640000146401E80B20029FAD1704710B51448E7
:1026500086B04269012149040A43426142690A4045
:10266000059242690A434261406909240840059085
:10267000102000900120019002900320E4060390B6
:1026800069462046FEF7EEFD1120019020200090C3
:1026900069462046FEF7E6FD00F08EF806B010BD54
:1026A0000010024010B50924E40601222021204632
:1026B000FEF7AFFEFFF7C3FF012210212046FEF711
:1026C000A8FEFFF7BCFF002210212046FEF7A1FE66
:1026D000FFF7B5FF10BDF8B50024092607462546CB
:1026E000F6066006040E012210213046FEF791FE28
:1026F000FFF7A5FF20213046FEF786FE002801D017
:10270000641CE4B2002210213046FEF782FEFFF77F
:1027100096FF6D1CEDB2082DE3D3002F03D0FFF719
:102720006EFF2046F8BDFFF7BDFFFAE770B5002445
:1027300009260546F606E80901D0012200E000223C
:1027400020213046FEF765FEFFF779FF01221021B8
:102750003046FEF75EFEFFF772FF00221021304682
:10276000FEF757FE6806641C050EE4B2082CE2D39F
:10277000012220213046FEF74CFE70BD10B5092421
:10278000E406012220212046FEF743FE012210210B
:102790002046FEF73EFEFFF752FF00222021204692
:1027A000FEF737FEFFF74BFF002210212046FEF711
:1027B00030FEFFF744FF10BD10B50924E4060022E7
:1027C00020212046FEF725FEFFF739FF01221021C8
:1027D0002046FEF71EFEFFF732FF01222021204691
:1027E000FEF717FEFFF72BFF10BD70B5092600247A
:1027F000F6062546012220213046FEF70AFEFFF7A5
:102800001EFF012210213046FEF703FEFFF717FFDF
:1028100007E0641CE4B2FA2C03D9FFF7CDFF0125D1
:1028200005E020213046FEF7EFFD0028F1D100221F
:1028300010213046FEF7EDFDFFF701FF284670BD81
:102840007CB5154D04466B4606224321287800F0DE
:1028500085F800280BD16846008840BAE0806846B9
:10286000408840BA20816846808840BA60816B46C3
:1028700006223B21287800F071F800280BD1684629
:10288000008840BA20806846408840BA6080684628
:10289000808840BAA0807CBD0000002010B5FFF702
:1028A000D5FE80216B2000F0CBF86420FEF7C8FC39
:1028B00000216B2000F0C4F8032000F088F802200B
:1028C00000F07EF8322000F0A3F80021382000F05C
:1028D000B7F800216A2000F0B3F80021232000F0AF
:1028E000AFF88021372000F0ABF8752000F010F829
:1028F00068280BD101216B2000F0A2F800216C2088
:1029000000F09EF8C82000F083F8002010BD000001
:1029100070B50546FFF732FF0F4C20784006000ED9
:10292000FFF704FFFFF761FF2846FFF7FFFEFFF701
:102930005CFFFFF723FF20784000401CC0B2FFF788
:10294000F5FEFFF752FF0020FFF7C5FE0446FFF734
:1029500033FF204670BD000000000020F8B51D4682
:1029600014460F460646FFF709FF7600F0B2FFF760
:10297000DDFEFFF73AFF002803D0FFF71DFF01201F
:10298000F8BD3846FFF7D2FEFFF72FFFFFF7F6FE40
:10299000761CF0B2FFF7CAFEFFF727FF08E0012C14
:1029A0000CD00120FFF797FE641E2870E4B26D1C66
:1029B000002CF4D1FFF700FF0020F8BD0020F1E764
:1029C000C00610B5010E1C2000F03AF810BDC0067C
:1029D00010B5010E1B2000F033F810BD10B5BC2857
:1029E00001D3012110E0622801D302210CE02A2842
:1029F00001D3032108E0142801D3042104E00A28AC
:102A000001D3052100E006211A2000F019F810BDBD
:102A100010B504467D20C000844201D9044602E07E
:102A2000042C00D204242146FDF75AFB401EC1B2FB
:102A3000192000F005F86008FFF7D0FF10BD000076
:102A400070B50C460546FFF799FE0F480078400622
:102A5000000EFFF76BFEFFF7C8FE00280BD12846DB
:102A6000FFF764FEFFF7C1FE2046FFF75FFEFFF7AA
:102A7000BCFE002803D0FFF79FFE012070BDFFF7CA
:102A80009BFE002070BD0000000000203EB500212C
:102A90001748009101910291416081600124134A1D
:102AA00004610260C160042242610176417684764D
:102AB000FF22C176C232C2610162014620310C712F
:102AC0008462FEF76FF9002801D0FEF761F801205B
:102AD0000003019003200290009469460448FEF729
:102AE00059F8002801D0FEF753F83EBD00240140FC
:102AF0004001002008B50C484169012211434161A1
:102B0000406910400022009011460920FEF7E8FCC1
:102B10000920FEF7D9FC002211460A20FEF7E0FC4E
:102B20000A20FEF7D1FC08BD0010024070B586B047
:102B300014216846FDF746FB1B4842690121490400
:102B40000A43426142690A400592426949000A43C8
:102B50004261406909260840F606059001223021AD
:102B60003046FEF756FC1020012403250090019406
:102B70006946039502943046FEF774FB20200090CE
:102B8000112001AA31C269463046FEF76BFB0220D4
:102B90000090112000040190694602940348FEF75A
:102BA00061FB06B070BD0000001002400004004848
:102BB00010B50A48084901601721416000217D22B3
:102BC0008160D2000161C2608161FEF7DBFF0028F5
:102BD00001D0FDF7DDFF10BD002000400C020020F9
:102BE00010B58AB0002407941C2168460894FDF7AC
:102BF000E9FA1A491A4812C004608460194904614C
:102C000041600838FFF763F9002801D0FDF7C0FFE5
:102C1000079407A912480894FEF78CFF002801D0FA
:102C2000FDF7B6FF602000900194029400226946EF
:102C300004940B48FFF7E3F8002801D0FDF7A8FF44
:102C4000042269460648FFF7DAF8002801D0FDF7AC
:102C50009FFF0348FFF7AAF80AB010BD0004004028
:102C6000C4010020BF12000010B50C480A490160E1
:102C7000E1214902416000218160C16001618161FF
:102C8000C1610C22016242614162FFF7C5FB00286D
:102C900001D0FDF77DFF10BD003801405402002037
:102CA000FEE77047704700000449012804D002285D
:102CB00001D16920087070476820FBE70000002000
:102CC00010B5FEF7B3FB10BD70B594B03021684667
:102CD000FDF778FA002401250F9412200595009045
:102CE00010200E9410941394049006900D940520D7
:102CF0001294C0040C94039502260A90119408962D
:102D000009940B946846FEF737FD002801D072B68F
:102D1000FEE707200C900E9401210D960F940CA84D
:102D2000FEF756FC002801D072B6FEE710A81095F9
:102D30001294FEF7D9FB002801D072B6FEE714B05A
:102D400070BD704710B50248FEF77FFF10BD000050
:102D50000C02002070B50268174B184E984201D043
:102D6000B04203D17024A2434C682243144C154D49
:102D7000984208D0B04206D0134EB04203D0A042D1
:102D800001D0A84204D103263602B243CE683243B2
:102D90008026B2434E69324302608A68C2620A6882
:102DA0008262984203D0A04201D0A84201D10969B1
:102DB00001630121416170BD002C0140000400400D
:102DC00000440140004801400020004010B5CB06FF
:102DD000DB0E0121046A99408C430462016A9A4027
:102DE0001143016210BD0000F0B5026A52085200A2
:102DF0000262056A436882697024A24392080C68E3
:102E000092001443022295438A68134E2A43114DBF
:102E1000A84204D0B04202D0104FB84206D10827D1
:102E2000BA43CF681743042297433A46A84204D0D6
:102E3000B04202D0094DA84206D103252D02AB4372
:102E40004D691D438B692B4343608461496841632D
:102E50000262F0BD002C01400044014000480140E6
:102E600070B5026A10239A430262046A4368826959
:102E700073252D02AA430D682D0215432022944389
:102E80008A6812012243104CA04208D11446CA6835
:102E90008026B443120122434024A24305E00B4C98
:102EA000A04202D00A4CA04208D10324A402A343AA
:102EB0004C69A4001C438B699B00234343608561DC
:102EC00049688163026270BD002C014000440140EA
:102ED0000048014070B5026AFF2301339A43026241
:102EE000046A4368C2697025AA4392080D6892007B
:102EF00015430122520294438A6812022243104C65
:102F0000A04207D1C414A243CC6824022243061570
:102F1000B24305E00B4CA04202D00B4CA04208D1BA
:102F200003242403A3434C6924011C438B691B0124
:102F300023434360C5614968C163026270BD0000FC
:102F4000002C0140004401400048014030B5026AB5
:102F500001231B039A430262056A4268C369732412
:102F60002402A3430C6824021C4301235B039D43FA
:102F70008B681B032B430A4DA84205D0094DA8427C
:102F800002D0094DA84205D10125AD03AA434D69E0
:102F9000AD012A434260C46149680164036230BDE7
:102FA000002C0140004401400048014010B5818CD4
:102FB000C90707D001684A6801235B049A43836A02
:102FC0001A434A60818C890707D501684A68012342
:102FD0001B049A43C36A1A434A60818C490707D588
:102FE00001684A6801239B049A43036B1A434A60B1
:102FF000818C090707D501684A680123DB039A43DE
:10300000436B1A434A60818CC90607D502689168F0
:1030100001231B039943836B19439160818C8906BB
:1030200007D501688A6801235B039A43C36B1A437F
:103030008A60818C490612D503685A680121090506
:10304000046C8A4322435A60026C8A4207D10268A8
:10305000516803235B059943436C19435160818C8C
:10306000090607D501684A680123DB04806C9A438E
:1030700002434A6010BD0000F8B5044600268030C7
:103080000660FEF7CDF9054620680068124F00077C
:1030900009D501212B46002249052046009700F062
:1030A000E5F800280DD12068006840070BD5012104
:1030B0002B46002289052046009700F0D7F800280B
:1030C00001D00320F8BD2020A067E06726666034A9
:1030D00026750020F8BD0000FFFFFF0110B5406A13
:1030E0000022014640314A834A82FFF74DF810BD65
:1030F00010B5EFF31081012282F310880268136883
:10310000FF242134A343136081F31088EFF310816F
:10311000012282F31088026893685B085B00936069
:1031200081F31088016E01290BD1EFF31081012288
:1031300082F31088026813681024A343136081F39C
:1031400010882021C16700210166416610BD000082
:1031500070B5044680682169E26908436169002509
:103160001143084321680A683C4B1A4002430A6035
:1031700021684868032212039043E26810434860C4
:10318000A169206A084321688A680B231B029A43BD
:1031900002438A603248006B8007800F16D00128F6
:1031A00018D0022818D0032812D010210120E3697A
:1031B000C0032C4A2C4E83422BD100290ED0022969
:1031C0000FD004290FD008293FD110E00021EDE7EE
:1031D0000221EBE70421E9E70821E7E7FEF77CFAA3
:1031E00003E0104603E0FEF787FA002831D061685B
:1031F00040004A088018FCF773FF80B2014610397E
:10320000B14222D81849491C01400007400F084329
:103210001DE0002906D0022907D0042907D008297B
:1032200013D108E0FEF758FA03E0104603E0FEF77A
:1032300063FA00280DD061684A081018FCF750FFA7
:1032400080B201461039B14201D9012501E021685F
:10325000C86000206066A066284670BDF369FFFF65
:103260000010024000127A00EFFF0000FFB581B0AD
:1032700005461746044660350A9E55E0701C53D03B
:10328000FEF7CEF80499401AB04230D8002E2ED066
:1032900020680168490747D5C069C043000543D489
:1032A00001202168C0020862EFF31080012181F340
:1032B000108821680B68FF22A13293430B6080F3D2
:1032C0001088EFF31080012181F3108821688A684B
:1032D000520852008A6080F310882020A067E067BF
:1032E0008034206000202875032005B0F0BDEFF386
:1032F0001080012181F3108821680B68FF22A13220
:1033000093430B6080F31088EFF31080012181F369
:10331000108821688A68520852008A6080F31088F9
:103320002020A067E067DDE72068C1690298884334
:1033300004D00020B842A1D00020D6E70120F9E750
:1033400010B50248FEF722FF10BD00005402002015
:103350002021020C01D010211046020A01D0104693
:103360000839020901D01046091F820801D0104611
:10337000891E420801D0881E7047081A7047F8B5A8
:10338000040C8BB2264682B25E430D0C1046370CFD
:103390005843360480190021794116466E43370C94
:1033A00036048019794126466E438919F8BD00001C
:1033B0004900CA020243100000D004204A0D01D087
:1033C00001221043044A490D914201D102210843D0
:1033D000012800D105207047FF0700008307FF2266
:1033E000DB0E9A408907090E9940002808DB830804
:1033F00009489B001B1818689043084318607047E1
:103400000007000F0838830804489B001B18D86980
:1034100090430843D861704700E400E000ED00E00D
:10342000F8B504464F1EC8000838211815461E4638
:10343000086849683A4606239A4310D02A4633461C
:10344000FDF752F83A46D200083AA3181A687F1ED0
:103450005B68FCF797FF06223B469343EED1022FB1
:1034600023D0042F11D0062F2FD12A463346FDF743
:103470003BF8E36AA26AFCF785FF2A463346FDF76C
:1034800033F8636A226AFCF77DFF2A463346FDF76C
:103490002BF8E369A269FCF775FF2A463346FDF76E
:1034A00023F863692269FCF76DFF2A463346FDF76E
:1034B0001BF8E368A268FCF765FF2A463346FDF770
:1034C00013F863682268FCF75DFFF8BD10B50122B0
:1034D000FDF716FA10BD0000034A10B500201107D1
:1034E000FDF70EFA10BD000001FDFFFF02E008C865
:1034F000121F08C1002AFAD170477047002001E06E
:1035000001C1121F002AFBD1704700000149086069
:103510007047000080000020F0B50022214F1146C6
:10352000104601231F4D5C00203D2E5B6519403D78
:10353000EE87E6193D5B403EF5871A4D5B1C203552
:103540002E5B6419403CDBB2E687102BEAD3164BA6
:10355000144CDD88203CE5831D89FD8325465B896D
:103560004035EB8300230F4E5C00203E365F5B1C32
:10357000B2183E5F2C5F71182018DBB2102BF2D30B
:10358000D3171B0F9A181311074AD380CB171B0FA1
:10359000591809111181C117090F0818001150811C
:1035A000F0BD00000001002040000020F0B589B00F
:1035B00004460D464800069172494008884215DBD2
:1035C0007149884203DC884207D1002C05D020468F
:1035D0002946FFF77BFF09B0F0BD6C48002D02DDE6
:1035E0006B4909B0F0BD6B4909B0F0BD6A4988422A
:1035F00011DA6A4988420BDA20462946FFF7D8FEDD
:10360000042801D1FFF768FF2046294609B0F0BD24
:103610000026F6435DE06D0061496D08884232DAAC
:103620006049884219DA0026012332469B0720466A
:103630002946FCF7A7FE07460191012220462946AC
:10364000FDF75EF90022584BFCF740FF3A46019B1C
:10365000FCF7B2FF04460D463BE001260022524B28
:1036600020462946FCF78EFE0746009100224E4B6D
:1036700020462946FCF72AFF3A46009BFCF79CFFB0
:1036800004460D4625E04949884219DA02260022FF
:10369000474B20462946FCF727FF0022424BFCF708
:1036A00071FE074602910022414B20462946FCF755
:1036B0000DFF3A46029BFCF77FFF04460D4608E0EB
:1036C000032622462B4600203A49FCF775FF0446A4
:1036D0000D4622462B4610461946FCF705FF0746C5
:1036E0000B4602460191FCF7FFFE0246029032486B
:1036F0000B46039106217844FFF792FE3A46019B60
:10370000FCF7F2FE00902D48019105217844039BBF
:10371000029AFFF785FE039B029AFCF7E5FE02463C
:103720000B4601990098002E0BDAFCF72BFE22467F
:103730002B46FCF7D9FE22462B46FCF7CDFE09B0FE
:10374000F0BDFCF71FFE22462B46FCF7CDFE1C4ABF
:10375000F6007A4493191A685B68FCF7B7FE2246B4
:103760002B46FCF7B3FE174A7A4493191A685B6834
:10377000FCF7B2FE069A002AE1DA0122D207514094
:1037800009B0F0BD000010440000F07F182D445433
:10379000FB21F93FFB21F9BF0000DC3F0000203E88
:1037A0000000F33F0000E63F0000F03F00800340D0
:1037B0000000F83F0000F0BF1E050000E00400001C
:1037C0007A04000044040000FFB54D4C8DB0E16860
:1037D00009910E98FCF752FD4A49FCF757FD6168C4
:1037E000FCF7FBFC2546303508906868464E0146DC
:1037F00001903046FCF742FDA9680091FCF73EFDC0
:1038000002464248F1070260EF6804974F40476064
:103810008760C6603B491046FCF738FD2968FCF715
:10382000DCFC064637493846FCF730FD074601996F
:10383000FCF7D3FC059038460099FCF7CEFC074610
:1038400033480499FCF7C9FC0A9008990D98FCF7D5
:1038500015FD206103903F21A7610906304666618E
:10386000FCF7BBFCE061014600903046FCF74BFDE5
:103870002062019038460099FCF745FD6062009097
:10388000A6620598E062029031460198FCF7FEFCC2
:103890003146FCF7F7FC286002990198FCF7F6FC2A
:1038A0000599FCF7EFFC686031460098FCF7EEFCE8
:1038B0003946FCF7E7FCA86002990098FCF7E6FCA3
:1038C0000A99FCF7DFFCE86003990198FCF7DEFC3D
:1038D0000899FCF782FC6060054603990098FCF7A4
:1038E000D5FC0999FCF779FC0146E0600E98FCF7DD
:1038F000C5FCA0600F990D601099086011B0F0BD73
:10390000000000200AD7233C6F12033B84000020F4
:10391000ADC5A737FDF792FDFFF7D6F9FFF706F91A
:10392000FFF7E8F8FFF7A0F9FFF7B0F8FFF758F94D
:10393000FFF73EF90120FFF7B7F9FEF7AFFF0028C8
:1039400003D06420FDF77CFCF4E724494B200A688F
:10395000400150630968886300212048FEF7F0FAAF
:1039600004211E48FEF7ECFA20221D491D48FDF7F0
:1039700025FB4B20000100F0DBF84B24E40020463F
:10398000FDF75EFC184800F0D3F82046FDF758FC20
:10399000164801210268C94311610068C16801220B
:1039A0001143C1601148FEF72BF9114C0A20FDF7B5
:1039B00047FC10A000F08AF80221206A00F028F8E5
:1039C0000FA000F083F8A08900F076F80EA000F0B8
:1039D0007DF80221206900F01BF8E7E7C401002010
:1039E000940000204001002050FBFFFF0C0200204B
:1039F000400000200D0A20416E676C653A0000000F
:103A00002041443A0000000020416E673A00000067
:103A1000F0B50446FF20C00585B00F46C44205D36B
:103A20002D2000F07BF80120C00744403E46204D89
:103A300006E029462046FCF729FCB61E0446F6B2ED
:103A4000022EF6D2002E04D01A492046FCF71EFCA6
:103A500004463F2109062046FCF7BFFB0024FCF783
:103A600043FE30266D4606E00A21FCF739FB303173
:103A70002955641CE4B20028F6D102E02E55641CDE
:103A8000E4B2BC42FAD3BC420ED12E55641C0AE00B
:103A9000BC4202D12E2000F041F828192038C07F06
:103AA00000F03CF8641EE4B2002CF1D105B0F0BD8A
:103AB0000000C8420000204110B5040003D52D20AD
:103AC00000F02CF8604200F00BF810BD10B5044671
:103AD00002E0641C00F022F820780028F9D110BD23
:103AE0003EB500280AD000246D460A21FCF7F8FAFA
:103AF0002955641CE4B20028F7D10CE0302000F016
:103B00000DF83EBD28192038C07F3030C0B200F01B
:103B100005F8641EE4B2002CF4D13EBD01B5FF23CC
:103B2000012269460148FEF7FFFC08BD540200204F
:103B300010B5054A4B21490114680B1A63634018FC
:103B40001168886310BD0000C4010020F8B5064666
:103B50000C46FCF7EBFE051E0F4600D0012001438A
:103B600049000B484908411AC90F0DD0002E01D059
:103B7000012100E000210C4361004908401AC00FF8
:103B800002D10120FFF7C2FC28463946F8BD0000EB
:103B90000000F07F000000000000000001020304AC
:103BA00006070809000000000102030400000000ED
:103BB0004FBB610567ACDD3F182D4454FB21E93F45
:103BC0009BF681D20B73EF3F182D4454FB21F93F34
:103BD000E2652F227F2B7A3C075C143326A6813CBA
:103BE000BDCBF07A8807703C075C143326A6913C65
:103BF000C4EB98999999C9BF711623FEC671BCBFD1
:103C00006D9A74AFF2B0B3BF9AFDDE522DDEADBF38
:103C10002F6C6A2C44B4A2BF0D5555555555D53F50
:103C2000FF8300922449C23F6E204CC5CD45B73F6B
:103C3000513DD0A0660DB13FEB0D76244B7BA93FE3
:103C400011DA22E33AAD903F683C00080000002002
:103C500084000000EC340008EC3C000884000020E4
:103C60009C060000FC34000800000000000000007A
:103C70000000000000000000000000000000000044
:103C80000000000000000000000000000000000034
:103C900000000000000000000000803F0000000065
:103CA000000000000000803F000000000000000055
:103CB0000000000000000000000000000000000004
:103CC00000000000000000000000000000000000F4
:103CD00000000000000000000100000004000000DF
:0C3CE0000000000000127A00000000004C
:04000005080000B13E
:00000001FF
